{
  "contractName": "DappTokenCrowdsale",
  "abi": [
    {
      "constant": true,
      "inputs": [
        {
          "name": "_operator",
          "type": "address"
        },
        {
          "name": "_role",
          "type": "string"
        }
      ],
      "name": "checkRole",
      "outputs": [],
      "payable": false,
      "stateMutability": "view",
      "type": "function"
    },
    {
      "constant": true,
      "inputs": [],
      "name": "hasClosed",
      "outputs": [
        {
          "name": "",
          "type": "bool"
        }
      ],
      "payable": false,
      "stateMutability": "view",
      "type": "function"
    },
    {
      "constant": true,
      "inputs": [],
      "name": "ROLE_WHITELISTED",
      "outputs": [
        {
          "name": "",
          "type": "string"
        }
      ],
      "payable": false,
      "stateMutability": "view",
      "type": "function"
    },
    {
      "constant": true,
      "inputs": [
        {
          "name": "_operator",
          "type": "address"
        },
        {
          "name": "_role",
          "type": "string"
        }
      ],
      "name": "hasRole",
      "outputs": [
        {
          "name": "",
          "type": "bool"
        }
      ],
      "payable": false,
      "stateMutability": "view",
      "type": "function"
    },
    {
      "constant": false,
      "inputs": [
        {
          "name": "_operators",
          "type": "address[]"
        }
      ],
      "name": "removeAddressesFromWhitelist",
      "outputs": [],
      "payable": false,
      "stateMutability": "nonpayable",
      "type": "function"
    },
    {
      "constant": false,
      "inputs": [
        {
          "name": "_operator",
          "type": "address"
        }
      ],
      "name": "removeAddressFromWhitelist",
      "outputs": [],
      "payable": false,
      "stateMutability": "nonpayable",
      "type": "function"
    },
    {
      "constant": true,
      "inputs": [],
      "name": "rate",
      "outputs": [
        {
          "name": "",
          "type": "uint256"
        }
      ],
      "payable": false,
      "stateMutability": "view",
      "type": "function"
    },
    {
      "constant": true,
      "inputs": [],
      "name": "cap",
      "outputs": [
        {
          "name": "",
          "type": "uint256"
        }
      ],
      "payable": false,
      "stateMutability": "view",
      "type": "function"
    },
    {
      "constant": true,
      "inputs": [],
      "name": "weiRaised",
      "outputs": [
        {
          "name": "",
          "type": "uint256"
        }
      ],
      "payable": false,
      "stateMutability": "view",
      "type": "function"
    },
    {
      "constant": true,
      "inputs": [
        {
          "name": "",
          "type": "address"
        }
      ],
      "name": "contributions",
      "outputs": [
        {
          "name": "",
          "type": "uint256"
        }
      ],
      "payable": false,
      "stateMutability": "view",
      "type": "function"
    },
    {
      "constant": true,
      "inputs": [],
      "name": "tokenSalePercentage",
      "outputs": [
        {
          "name": "",
          "type": "uint256"
        }
      ],
      "payable": false,
      "stateMutability": "view",
      "type": "function"
    },
    {
      "constant": true,
      "inputs": [],
      "name": "closingTime",
      "outputs": [
        {
          "name": "",
          "type": "uint256"
        }
      ],
      "payable": false,
      "stateMutability": "view",
      "type": "function"
    },
    {
      "constant": true,
      "inputs": [],
      "name": "capReached",
      "outputs": [
        {
          "name": "",
          "type": "bool"
        }
      ],
      "payable": false,
      "stateMutability": "view",
      "type": "function"
    },
    {
      "constant": true,
      "inputs": [],
      "name": "wallet",
      "outputs": [
        {
          "name": "",
          "type": "address"
        }
      ],
      "payable": false,
      "stateMutability": "view",
      "type": "function"
    },
    {
      "constant": true,
      "inputs": [],
      "name": "foundersPercentage",
      "outputs": [
        {
          "name": "",
          "type": "uint256"
        }
      ],
      "payable": false,
      "stateMutability": "view",
      "type": "function"
    },
    {
      "constant": true,
      "inputs": [],
      "name": "foundersTimelock",
      "outputs": [
        {
          "name": "",
          "type": "address"
        }
      ],
      "payable": false,
      "stateMutability": "view",
      "type": "function"
    },
    {
      "constant": false,
      "inputs": [],
      "name": "renounceOwnership",
      "outputs": [],
      "payable": false,
      "stateMutability": "nonpayable",
      "type": "function"
    },
    {
      "constant": false,
      "inputs": [
        {
          "name": "_operator",
          "type": "address"
        }
      ],
      "name": "addAddressToWhitelist",
      "outputs": [],
      "payable": false,
      "stateMutability": "nonpayable",
      "type": "function"
    },
    {
      "constant": true,
      "inputs": [],
      "name": "foundationPercentage",
      "outputs": [
        {
          "name": "",
          "type": "uint256"
        }
      ],
      "payable": false,
      "stateMutability": "view",
      "type": "function"
    },
    {
      "constant": true,
      "inputs": [],
      "name": "owner",
      "outputs": [
        {
          "name": "",
          "type": "address"
        }
      ],
      "payable": false,
      "stateMutability": "view",
      "type": "function"
    },
    {
      "constant": true,
      "inputs": [],
      "name": "partnersFund",
      "outputs": [
        {
          "name": "",
          "type": "address"
        }
      ],
      "payable": false,
      "stateMutability": "view",
      "type": "function"
    },
    {
      "constant": true,
      "inputs": [
        {
          "name": "_operator",
          "type": "address"
        }
      ],
      "name": "whitelist",
      "outputs": [
        {
          "name": "",
          "type": "bool"
        }
      ],
      "payable": false,
      "stateMutability": "view",
      "type": "function"
    },
    {
      "constant": true,
      "inputs": [],
      "name": "foundationFund",
      "outputs": [
        {
          "name": "",
          "type": "address"
        }
      ],
      "payable": false,
      "stateMutability": "view",
      "type": "function"
    },
    {
      "constant": true,
      "inputs": [],
      "name": "investorMinCap",
      "outputs": [
        {
          "name": "",
          "type": "uint256"
        }
      ],
      "payable": false,
      "stateMutability": "view",
      "type": "function"
    },
    {
      "constant": true,
      "inputs": [],
      "name": "partnersTimelock",
      "outputs": [
        {
          "name": "",
          "type": "address"
        }
      ],
      "payable": false,
      "stateMutability": "view",
      "type": "function"
    },
    {
      "constant": true,
      "inputs": [],
      "name": "openingTime",
      "outputs": [
        {
          "name": "",
          "type": "uint256"
        }
      ],
      "payable": false,
      "stateMutability": "view",
      "type": "function"
    },
    {
      "constant": true,
      "inputs": [],
      "name": "releaseTime",
      "outputs": [
        {
          "name": "",
          "type": "uint256"
        }
      ],
      "payable": false,
      "stateMutability": "view",
      "type": "function"
    },
    {
      "constant": true,
      "inputs": [],
      "name": "stage",
      "outputs": [
        {
          "name": "",
          "type": "uint8"
        }
      ],
      "payable": false,
      "stateMutability": "view",
      "type": "function"
    },
    {
      "constant": true,
      "inputs": [],
      "name": "foundersFund",
      "outputs": [
        {
          "name": "",
          "type": "address"
        }
      ],
      "payable": false,
      "stateMutability": "view",
      "type": "function"
    },
    {
      "constant": false,
      "inputs": [
        {
          "name": "_operators",
          "type": "address[]"
        }
      ],
      "name": "addAddressesToWhitelist",
      "outputs": [],
      "payable": false,
      "stateMutability": "nonpayable",
      "type": "function"
    },
    {
      "constant": true,
      "inputs": [],
      "name": "foundationTimelock",
      "outputs": [
        {
          "name": "",
          "type": "address"
        }
      ],
      "payable": false,
      "stateMutability": "view",
      "type": "function"
    },
    {
      "constant": false,
      "inputs": [
        {
          "name": "_beneficiary",
          "type": "address"
        }
      ],
      "name": "buyTokens",
      "outputs": [],
      "payable": true,
      "stateMutability": "payable",
      "type": "function"
    },
    {
      "constant": true,
      "inputs": [],
      "name": "investorHardCap",
      "outputs": [
        {
          "name": "",
          "type": "uint256"
        }
      ],
      "payable": false,
      "stateMutability": "view",
      "type": "function"
    },
    {
      "constant": false,
      "inputs": [
        {
          "name": "_newOwner",
          "type": "address"
        }
      ],
      "name": "transferOwnership",
      "outputs": [],
      "payable": false,
      "stateMutability": "nonpayable",
      "type": "function"
    },
    {
      "constant": true,
      "inputs": [],
      "name": "partnersPercentage",
      "outputs": [
        {
          "name": "",
          "type": "uint256"
        }
      ],
      "payable": false,
      "stateMutability": "view",
      "type": "function"
    },
    {
      "constant": true,
      "inputs": [],
      "name": "token",
      "outputs": [
        {
          "name": "",
          "type": "address"
        }
      ],
      "payable": false,
      "stateMutability": "view",
      "type": "function"
    },
    {
      "inputs": [
        {
          "name": "_rate",
          "type": "uint256"
        },
        {
          "name": "_wallet",
          "type": "address"
        },
        {
          "name": "_token",
          "type": "address"
        },
        {
          "name": "_cap",
          "type": "uint256"
        },
        {
          "name": "_openingTime",
          "type": "uint256"
        },
        {
          "name": "_closingTime",
          "type": "uint256"
        },
        {
          "name": "_goal",
          "type": "uint256"
        },
        {
          "name": "_foundersFund",
          "type": "address"
        },
        {
          "name": "_foundationFund",
          "type": "address"
        },
        {
          "name": "_partnersFund",
          "type": "address"
        },
        {
          "name": "_releaseTime",
          "type": "uint256"
        }
      ],
      "payable": false,
      "stateMutability": "nonpayable",
      "type": "constructor"
    },
    {
      "payable": true,
      "stateMutability": "payable",
      "type": "fallback"
    },
    {
      "anonymous": false,
      "inputs": [
        {
          "indexed": true,
          "name": "purchaser",
          "type": "address"
        },
        {
          "indexed": true,
          "name": "beneficiary",
          "type": "address"
        },
        {
          "indexed": false,
          "name": "value",
          "type": "uint256"
        },
        {
          "indexed": false,
          "name": "amount",
          "type": "uint256"
        }
      ],
      "name": "TokenPurchase",
      "type": "event"
    },
    {
      "anonymous": false,
      "inputs": [
        {
          "indexed": true,
          "name": "operator",
          "type": "address"
        },
        {
          "indexed": false,
          "name": "role",
          "type": "string"
        }
      ],
      "name": "RoleAdded",
      "type": "event"
    },
    {
      "anonymous": false,
      "inputs": [
        {
          "indexed": true,
          "name": "operator",
          "type": "address"
        },
        {
          "indexed": false,
          "name": "role",
          "type": "string"
        }
      ],
      "name": "RoleRemoved",
      "type": "event"
    },
    {
      "anonymous": false,
      "inputs": [
        {
          "indexed": true,
          "name": "previousOwner",
          "type": "address"
        }
      ],
      "name": "OwnershipRenounced",
      "type": "event"
    },
    {
      "anonymous": false,
      "inputs": [
        {
          "indexed": true,
          "name": "previousOwner",
          "type": "address"
        },
        {
          "indexed": true,
          "name": "newOwner",
          "type": "address"
        }
      ],
      "name": "OwnershipTransferred",
      "type": "event"
    },
    {
      "constant": true,
      "inputs": [
        {
          "name": "_beneficiary",
          "type": "address"
        }
      ],
      "name": "getUserContribution",
      "outputs": [
        {
          "name": "",
          "type": "uint256"
        }
      ],
      "payable": false,
      "stateMutability": "view",
      "type": "function"
    },
    {
      "constant": false,
      "inputs": [
        {
          "name": "_stage",
          "type": "uint256"
        }
      ],
      "name": "setCrowdsaleStage",
      "outputs": [],
      "payable": false,
      "stateMutability": "nonpayable",
      "type": "function"
    }
  ],
  "bytecode": "0x608060405266071afd498d00006009556802b5e3af16b1880000600a556000600c60006101000a81548160ff021916908360018111156200003c57fe5b02179055506046600d55600a600e55600a600f55600a6010553480156200006257600080fd5b5060405161016080620022e783398101806040528101908080519060200190929190805190602001909291908051906020019092919080519060200190929190805190602001909291908051906020019092919080519060200190929190805190602001909291908051906020019092919080519060200190929190805190602001909291905050508686898d8d8d336000806101000a81548173ffffffffffffffffffffffffffffffffffffffff021916908373ffffffffffffffffffffffffffffffffffffffff1602179055506000831115156200014157600080fd5b600073ffffffffffffffffffffffffffffffffffffffff168273ffffffffffffffffffffffffffffffffffffffff16141515156200017e57600080fd5b600073ffffffffffffffffffffffffffffffffffffffff168173ffffffffffffffffffffffffffffffffffffffff1614151515620001bb57600080fd5b8260048190555081600360006101000a81548173ffffffffffffffffffffffffffffffffffffffff021916908373ffffffffffffffffffffffffffffffffffffffff16021790555080600260006101000a81548173ffffffffffffffffffffffffffffffffffffffff021916908373ffffffffffffffffffffffffffffffffffffffff1602179055505050506000811115156200025757600080fd5b80600681905550504282101515156200026f57600080fd5b8181101515156200027f57600080fd5b816007819055508060088190555050508785111515156200029f57600080fd5b83601160006101000a81548173ffffffffffffffffffffffffffffffffffffffff021916908373ffffffffffffffffffffffffffffffffffffffff16021790555082601260006101000a81548173ffffffffffffffffffffffffffffffffffffffff021916908373ffffffffffffffffffffffffffffffffffffffff16021790555081601360006101000a81548173ffffffffffffffffffffffffffffffffffffffff021916908373ffffffffffffffffffffffffffffffffffffffff160217905550806014819055505050505050505050505050611f6380620003846000396000f3006080604052600436106101d8576000357c0100000000000000000000000000000000000000000000000000000000900463ffffffff1680630988ca8c146101e35780631515bc2b1461026c57806318b919e91461029b578063217fe6c61461032b57806324953eaa146103cc578063286dd3f5146104325780632c4e722e14610475578063355274ea146104a05780634042b66f146104cb57806342e94c90146104f657806346daa2421461054d5780634b6753bc146105785780634f935945146105a3578063521eb273146105d257806353c08ea21461062957806364ceed9914610654578063715018a6146106ab5780637b9417c8146106c2578063864329e3146107055780638da5cb5b14610730578063926f0c7b146107875780639b19251a146107de578063a3a3382b14610839578063a997f82f14610890578063b25d7f54146108bd578063b63e53e0146108e8578063b7a8807c1461093f578063b91d40011461096a578063bb8b2b4714610995578063c040e6b8146109ec578063c440008e14610a25578063e2ec6ec314610a7c578063ec0de26e14610ae2578063ec8ac4d814610b39578063ed5db87414610b6f578063f2fde38b14610b9a578063f45b9bed14610bdd578063fc0c546a14610c08575b6101e133610c5f565b005b3480156101ef57600080fd5b5061026a600480360381019080803573ffffffffffffffffffffffffffffffffffffffff169060200190929190803590602001908201803590602001908080601f0160208091040260200160405190810160405280939291908181526020018383808284378201915050505050509192919290505050610d2d565b005b34801561027857600080fd5b50610281610dae565b604051808215151515815260200191505060405180910390f35b3480156102a757600080fd5b506102b0610dba565b6040518080602001828103825283818151815260200191508051906020019080838360005b838110156102f05780820151818401526020810190506102d5565b50505050905090810190601f16801561031d5780820380516001836020036101000a031916815260200191505b509250505060405180910390f35b34801561033757600080fd5b506103b2600480360381019080803573ffffffffffffffffffffffffffffffffffffffff169060200190929190803590602001908201803590602001908080601f0160208091040260200160405190810160405280939291908181526020018383808284378201915050505050509192919290505050610df3565b604051808215151515815260200191505060405180910390f35b3480156103d857600080fd5b5061043060048036038101908080359060200190820180359060200190808060200260200160405190810160405280939291908181526020018383602002808284378201915050505050509192919290505050610e7a565b005b34801561043e57600080fd5b50610473600480360381019080803573ffffffffffffffffffffffffffffffffffffffff169060200190929190505050610f16565b005b34801561048157600080fd5b5061048a610fb3565b6040518082815260200191505060405180910390f35b3480156104ac57600080fd5b506104b5610fb9565b6040518082815260200191505060405180910390f35b3480156104d757600080fd5b506104e0610fbf565b6040518082815260200191505060405180910390f35b34801561050257600080fd5b50610537600480360381019080803573ffffffffffffffffffffffffffffffffffffffff169060200190929190505050610fc5565b6040518082815260200191505060405180910390f35b34801561055957600080fd5b50610562610fdd565b6040518082815260200191505060405180910390f35b34801561058457600080fd5b5061058d610fe3565b6040518082815260200191505060405180910390f35b3480156105af57600080fd5b506105b8610fe9565b604051808215151515815260200191505060405180910390f35b3480156105de57600080fd5b506105e7610ff8565b604051808273ffffffffffffffffffffffffffffffffffffffff1673ffffffffffffffffffffffffffffffffffffffff16815260200191505060405180910390f35b34801561063557600080fd5b5061063e61101e565b6040518082815260200191505060405180910390f35b34801561066057600080fd5b50610669611024565b604051808273ffffffffffffffffffffffffffffffffffffffff1673ffffffffffffffffffffffffffffffffffffffff16815260200191505060405180910390f35b3480156106b757600080fd5b506106c061104a565b005b3480156106ce57600080fd5b50610703600480360381019080803573ffffffffffffffffffffffffffffffffffffffff16906020019092919050505061114c565b005b34801561071157600080fd5b5061071a6111e9565b6040518082815260200191505060405180910390f35b34801561073c57600080fd5b506107456111ef565b604051808273ffffffffffffffffffffffffffffffffffffffff1673ffffffffffffffffffffffffffffffffffffffff16815260200191505060405180910390f35b34801561079357600080fd5b5061079c611214565b604051808273ffffffffffffffffffffffffffffffffffffffff1673ffffffffffffffffffffffffffffffffffffffff16815260200191505060405180910390f35b3480156107ea57600080fd5b5061081f600480360381019080803573ffffffffffffffffffffffffffffffffffffffff16906020019092919050505061123a565b604051808215151515815260200191505060405180910390f35b34801561084557600080fd5b5061084e611282565b604051808273ffffffffffffffffffffffffffffffffffffffff1673ffffffffffffffffffffffffffffffffffffffff16815260200191505060405180910390f35b34801561089c57600080fd5b506108bb600480360381019080803590602001909291905050506112a8565b005b3480156108c957600080fd5b506108d26113ef565b6040518082815260200191505060405180910390f35b3480156108f457600080fd5b506108fd6113f5565b604051808273ffffffffffffffffffffffffffffffffffffffff1673ffffffffffffffffffffffffffffffffffffffff16815260200191505060405180910390f35b34801561094b57600080fd5b5061095461141b565b6040518082815260200191505060405180910390f35b34801561097657600080fd5b5061097f611421565b6040518082815260200191505060405180910390f35b3480156109a157600080fd5b506109d6600480360381019080803573ffffffffffffffffffffffffffffffffffffffff169060200190929190505050611427565b6040518082815260200191505060405180910390f35b3480156109f857600080fd5b50610a01611470565b60405180826001811115610a1157fe5b60ff16815260200191505060405180910390f35b348015610a3157600080fd5b50610a3a611483565b604051808273ffffffffffffffffffffffffffffffffffffffff1673ffffffffffffffffffffffffffffffffffffffff16815260200191505060405180910390f35b348015610a8857600080fd5b50610ae0600480360381019080803590602001908201803590602001908080602002602001604051908101604052809392919081815260200183836020028082843782019150505050505091929192905050506114a9565b005b348015610aee57600080fd5b50610af7611545565b604051808273ffffffffffffffffffffffffffffffffffffffff1673ffffffffffffffffffffffffffffffffffffffff16815260200191505060405180910390f35b610b6d600480360381019080803573ffffffffffffffffffffffffffffffffffffffff169060200190929190505050610c5f565b005b348015610b7b57600080fd5b50610b8461156b565b6040518082815260200191505060405180910390f35b348015610ba657600080fd5b50610bdb600480360381019080803573ffffffffffffffffffffffffffffffffffffffff169060200190929190505050611571565b005b348015610be957600080fd5b50610bf26115d8565b6040518082815260200191505060405180910390f35b348015610c1457600080fd5b50610c1d6115de565b604051808273ffffffffffffffffffffffffffffffffffffffff1673ffffffffffffffffffffffffffffffffffffffff16815260200191505060405180910390f35b600080349150610c6f8383611604565b610c78826116d1565b9050610c8f826005546116ef90919063ffffffff16565b600581905550610c9f838261170b565b8273ffffffffffffffffffffffffffffffffffffffff163373ffffffffffffffffffffffffffffffffffffffff167f623b3804fa71d67900d064613da8f94b9617215ee90799290593e1745087ad188484604051808381526020018281526020019250505060405180910390a3610d168383611719565b610d1e61171d565b610d2883836117f2565b505050565b610daa826001836040518082805190602001908083835b602083101515610d695780518252602082019150602081019050602083039250610d44565b6001836020036101000a03801982511681845116808217855250505050505090500191505090815260200160405180910390206117f690919063ffffffff16565b5050565b60006008544211905090565b6040805190810160405280600981526020017f77686974656c697374000000000000000000000000000000000000000000000081525081565b6000610e72836001846040518082805190602001908083835b602083101515610e315780518252602082019150602081019050602083039250610e0c565b6001836020036101000a038019825116818451168082178552505050505050905001915050908152602001604051809103902061180f90919063ffffffff16565b905092915050565b60008060009054906101000a900473ffffffffffffffffffffffffffffffffffffffff1673ffffffffffffffffffffffffffffffffffffffff163373ffffffffffffffffffffffffffffffffffffffff16141515610ed757600080fd5b600090505b8151811015610f1257610f058282815181101515610ef657fe5b90602001906020020151610f16565b8080600101915050610edc565b5050565b6000809054906101000a900473ffffffffffffffffffffffffffffffffffffffff1673ffffffffffffffffffffffffffffffffffffffff163373ffffffffffffffffffffffffffffffffffffffff16141515610f7157600080fd5b610fb0816040805190810160405280600981526020017f77686974656c6973740000000000000000000000000000000000000000000000815250611868565b50565b60045481565b60065481565b60055481565b600b6020528060005260406000206000915090505481565b600d5481565b60085481565b60006006546005541015905090565b600360009054906101000a900473ffffffffffffffffffffffffffffffffffffffff1681565b600e5481565b601560009054906101000a900473ffffffffffffffffffffffffffffffffffffffff1681565b6000809054906101000a900473ffffffffffffffffffffffffffffffffffffffff1673ffffffffffffffffffffffffffffffffffffffff163373ffffffffffffffffffffffffffffffffffffffff161415156110a557600080fd5b6000809054906101000a900473ffffffffffffffffffffffffffffffffffffffff1673ffffffffffffffffffffffffffffffffffffffff167ff8df31144d9c2f0f6b59d69b8b98abd5459d07f2742c4df920b25aae33c6482060405160405180910390a260008060006101000a81548173ffffffffffffffffffffffffffffffffffffffff021916908373ffffffffffffffffffffffffffffffffffffffff160217905550565b6000809054906101000a900473ffffffffffffffffffffffffffffffffffffffff1673ffffffffffffffffffffffffffffffffffffffff163373ffffffffffffffffffffffffffffffffffffffff161415156111a757600080fd5b6111e6816040805190810160405280600981526020017f77686974656c697374000000000000000000000000000000000000000000000081525061199c565b50565b600f5481565b6000809054906101000a900473ffffffffffffffffffffffffffffffffffffffff1681565b601360009054906101000a900473ffffffffffffffffffffffffffffffffffffffff1681565b600061127b826040805190810160405280600981526020017f77686974656c6973740000000000000000000000000000000000000000000000815250610df3565b9050919050565b601260009054906101000a900473ffffffffffffffffffffffffffffffffffffffff1681565b6000809054906101000a900473ffffffffffffffffffffffffffffffffffffffff1673ffffffffffffffffffffffffffffffffffffffff163373ffffffffffffffffffffffffffffffffffffffff1614151561130357600080fd5b806000600181111561131157fe5b1415611340576000600c60006101000a81548160ff0219169083600181111561133657fe5b0217905550611379565b8060018081111561134d57fe5b1415611378576001600c60006101000a81548160ff0219169083600181111561137257fe5b02179055505b5b6000600181111561138657fe5b600c60009054906101000a900460ff1660018111156113a157fe5b14156113b5576101f46004819055506113ec565b6001808111156113c157fe5b600c60009054906101000a900460ff1660018111156113dc57fe5b14156113eb5760fa6004819055505b5b50565b60095481565b601760009054906101000a900473ffffffffffffffffffffffffffffffffffffffff1681565b60075481565b60145481565b6000600b60008373ffffffffffffffffffffffffffffffffffffffff1673ffffffffffffffffffffffffffffffffffffffff168152602001908152602001600020549050919050565b600c60009054906101000a900460ff1681565b601160009054906101000a900473ffffffffffffffffffffffffffffffffffffffff1681565b60008060009054906101000a900473ffffffffffffffffffffffffffffffffffffffff1673ffffffffffffffffffffffffffffffffffffffff163373ffffffffffffffffffffffffffffffffffffffff1614151561150657600080fd5b600090505b815181101561154157611534828281518110151561152557fe5b9060200190602002015161114c565b808060010191505061150b565b5050565b601660009054906101000a900473ffffffffffffffffffffffffffffffffffffffff1681565b600a5481565b6000809054906101000a900473ffffffffffffffffffffffffffffffffffffffff1673ffffffffffffffffffffffffffffffffffffffff163373ffffffffffffffffffffffffffffffffffffffff161415156115cc57600080fd5b6115d581611ad0565b50565b60105481565b600260009054906101000a900473ffffffffffffffffffffffffffffffffffffffff1681565b6000806116118484611bca565b600b60008573ffffffffffffffffffffffffffffffffffffffff1673ffffffffffffffffffffffffffffffffffffffff16815260200190815260200160002054915061166683836116ef90919063ffffffff16565b9050600954811015801561167c5750600a548111155b151561168757600080fd5b80600b60008673ffffffffffffffffffffffffffffffffffffffff1673ffffffffffffffffffffffffffffffffffffffff1681526020019081526020016000208190555050505050565b60006116e860045483611c1990919063ffffffff16565b9050919050565b6000818301905082811015151561170257fe5b80905092915050565b6117158282611c51565b5050565b5050565b6000600181111561172a57fe5b600c60009054906101000a900460ff16600181111561174557fe5b14156117b957600360009054906101000a900473ffffffffffffffffffffffffffffffffffffffff1673ffffffffffffffffffffffffffffffffffffffff166108fc349081150290604051600060405180830381858888f193505050501580156117b3573d6000803e3d6000fd5b506117f0565b6001808111156117c557fe5b600c60009054906101000a900460ff1660018111156117e057fe5b14156117ef576117ee611d60565b5b5b565b5050565b611800828261180f565b151561180b57600080fd5b5050565b60008260000160008373ffffffffffffffffffffffffffffffffffffffff1673ffffffffffffffffffffffffffffffffffffffff16815260200190815260200160002060009054906101000a900460ff16905092915050565b6118e5826001836040518082805190602001908083835b6020831015156118a4578051825260208201915060208101905060208303925061187f565b6001836020036101000a0380198251168184511680821785525050505050509050019150509081526020016040518091039020611dcb90919063ffffffff16565b8173ffffffffffffffffffffffffffffffffffffffff167fd211483f91fc6eff862467f8de606587a30c8fc9981056f051b897a418df803a826040518080602001828103825283818151815260200191508051906020019080838360005b8381101561195e578082015181840152602081019050611943565b50505050905090810190601f16801561198b5780820380516001836020036101000a031916815260200191505b509250505060405180910390a25050565b611a19826001836040518082805190602001908083835b6020831015156119d857805182526020820191506020810190506020830392506119b3565b6001836020036101000a0380198251168184511680821785525050505050509050019150509081526020016040518091039020611e2990919063ffffffff16565b8173ffffffffffffffffffffffffffffffffffffffff167fbfec83d64eaa953f2708271a023ab9ee82057f8f3578d548c1a4ba0b5b700489826040518080602001828103825283818151815260200191508051906020019080838360005b83811015611a92578082015181840152602081019050611a77565b50505050905090810190601f168015611abf5780820380516001836020036101000a031916815260200191505b509250505060405180910390a25050565b600073ffffffffffffffffffffffffffffffffffffffff168173ffffffffffffffffffffffffffffffffffffffff1614151515611b0c57600080fd5b8073ffffffffffffffffffffffffffffffffffffffff166000809054906101000a900473ffffffffffffffffffffffffffffffffffffffff1673ffffffffffffffffffffffffffffffffffffffff167f8be0079c531659141344cd1fd0a4f28419497f9722a3daafe3b4186f6b6457e060405160405180910390a3806000806101000a81548173ffffffffffffffffffffffffffffffffffffffff021916908373ffffffffffffffffffffffffffffffffffffffff16021790555050565b81611c0a816040805190810160405280600981526020017f77686974656c6973740000000000000000000000000000000000000000000000815250610d2d565b611c148383611e87565b505050565b600080831415611c2c5760009050611c4b565b8183029050818382811515611c3d57fe5b04141515611c4757fe5b8090505b92915050565b600260009054906101000a900473ffffffffffffffffffffffffffffffffffffffff1673ffffffffffffffffffffffffffffffffffffffff166340c10f1983836040518363ffffffff167c0100000000000000000000000000000000000000000000000000000000028152600401808373ffffffffffffffffffffffffffffffffffffffff1673ffffffffffffffffffffffffffffffffffffffff16815260200182815260200192505050602060405180830381600087803b158015611d1657600080fd5b505af1158015611d2a573d6000803e3d6000fd5b505050506040513d6020811015611d4057600080fd5b81019080805190602001909291905050501515611d5c57600080fd5b5050565b600360009054906101000a900473ffffffffffffffffffffffffffffffffffffffff1673ffffffffffffffffffffffffffffffffffffffff166108fc349081150290604051600060405180830381858888f19350505050158015611dc8573d6000803e3d6000fd5b50565b60008260000160008373ffffffffffffffffffffffffffffffffffffffff1673ffffffffffffffffffffffffffffffffffffffff16815260200190815260200160002060006101000a81548160ff0219169083151502179055505050565b60018260000160008373ffffffffffffffffffffffffffffffffffffffff1673ffffffffffffffffffffffffffffffffffffffff16815260200190815260200160002060006101000a81548160ff0219169083151502179055505050565b6007544210158015611e9b57506008544211155b1515611ea657600080fd5b611eb08282611eb4565b5050565b611ebe8282611ee7565b600654611ed6826005546116ef90919063ffffffff16565b11151515611ee357600080fd5b5050565b600073ffffffffffffffffffffffffffffffffffffffff168273ffffffffffffffffffffffffffffffffffffffff1614151515611f2357600080fd5b60008114151515611f3357600080fd5b50505600a165627a7a723058205903f1fc96f16ad1ea07a0e1916b5b26adccbff29d78ebaeed869bc7ee5e62c70029",
  "source": "// SPDX-License-Identifier: MIT\r\npragma solidity >=0.4.22 <0.9.0;\r\n\r\nimport \"openzeppelin-solidity/contracts/token/ERC20/ERC20.sol\";\r\nimport \"openzeppelin-solidity/contracts/token/ERC20/PausableToken.sol\";\r\nimport \"openzeppelin-solidity/contracts/token/ERC20/MintableToken.sol\";\r\nimport \"openzeppelin-solidity/contracts/token/ERC20/TokenTimelock.sol\";\r\nimport \"openzeppelin-solidity/contracts/crowdsale/Crowdsale.sol\";\r\nimport \"openzeppelin-solidity/contracts/crowdsale/emission/MintedCrowdsale.sol\";\r\nimport \"openzeppelin-solidity/contracts/crowdsale/validation/CappedCrowdsale.sol\";\r\nimport \"openzeppelin-solidity/contracts/crowdsale/validation/TimedCrowdsale.sol\";\r\nimport \"openzeppelin-solidity/contracts/crowdsale/validation/WhitelistedCrowdsale.sol\";\r\nimport \"openzeppelin-solidity/contracts/crowdsale/distribution/RefundableCrowdsale.sol\";\r\n\r\n\r\ncontract DappTokenCrowdsale is Crowdsale,MintedCrowdsale, CappedCrowdsale, TimedCrowdsale, WhitelistedCrowdsale {\r\n    // Track investor contributions\r\n    uint256 public investorMinCap = 2000000000000000; // 0.002 ether\r\n    uint256 public investorHardCap = 50000000000000000000; // 50 ether\r\n    mapping(address => uint256) public contributions;\r\n\r\n    // Crowdsale Stages\r\n    enum CrowdsaleStage {\r\n        PreICO,\r\n        ICO\r\n    }\r\n    // Default to presale stage\r\n    CrowdsaleStage public stage = CrowdsaleStage.PreICO;\r\n    // Token Distribution\r\n    uint256 public tokenSalePercentage = 70;\r\n    uint256 public foundersPercentage = 10;\r\n    uint256 public foundationPercentage = 10;\r\n    uint256 public partnersPercentage = 10;\r\n\r\n    // Token reserve funds\r\n    address public foundersFund;\r\n    address public foundationFund;\r\n    address public partnersFund;\r\n\r\n    // Token time lock\r\n    uint256 public releaseTime;\r\n    address public foundersTimelock;\r\n    address public foundationTimelock;\r\n    address public partnersTimelock;\r\n\r\n    constructor(\r\n        uint256 _rate,\r\n        address _wallet,\r\n        ERC20 _token,\r\n        uint256 _cap,\r\n        uint256 _openingTime,\r\n        uint256 _closingTime,\r\n        uint256 _goal,\r\n        address _foundersFund,\r\n        address _foundationFund,\r\n        address _partnersFund,\r\n        uint256 _releaseTime\r\n    )\r\n        public\r\n        Crowdsale(_rate, _wallet, _token)\r\n        CappedCrowdsale(_cap) \r\n        TimedCrowdsale(_openingTime, _closingTime)\r\n        \r\n       \r\n    {\r\n        require(_goal <= _cap);\r\n        foundersFund = _foundersFund;\r\n        foundationFund = _foundationFund;\r\n        partnersFund = _partnersFund;\r\n        releaseTime = _releaseTime;\r\n    }\r\n\r\n    /**\r\n     * @dev Returns the amount contributed so far by a sepecific user.\r\n     * @param _beneficiary Address of contributor\r\n     * @return User contribution so far\r\n     */\r\n    function getUserContribution(address _beneficiary)\r\n        public\r\n        view\r\n        returns (uint256)\r\n    {\r\n        return contributions[_beneficiary];\r\n    }\r\n\r\n    /**\r\n     * @dev Allows admin to update the crowdsale stage\r\n     * @param _stage Crowdsale stage\r\n     */\r\n    function setCrowdsaleStage(uint256 _stage) public onlyOwner {\r\n        if (uint256(CrowdsaleStage.PreICO) == _stage) {\r\n            stage = CrowdsaleStage.PreICO;\r\n        } else if (uint256(CrowdsaleStage.ICO) == _stage) {\r\n            stage = CrowdsaleStage.ICO;\r\n        }\r\n\r\n        if (stage == CrowdsaleStage.PreICO) {\r\n            rate = 500;\r\n        } else if (stage == CrowdsaleStage.ICO) {\r\n            rate = 250;\r\n        }\r\n    }\r\n\r\n    /**\r\n     * @dev forwards funds to the wallet during the PreICO stage, then the refund vault during ICO stage\r\n     */\r\n    function _forwardFunds() internal {\r\n        if (stage == CrowdsaleStage.PreICO) {\r\n            wallet.transfer(msg.value);\r\n        } else if (stage == CrowdsaleStage.ICO) {\r\n            super._forwardFunds();\r\n        }\r\n    }\r\n\r\n    function _preValidatePurchase(address _beneficiary, uint256 _weiAmount)\r\n        internal\r\n    {\r\n        super._preValidatePurchase(_beneficiary, _weiAmount);\r\n        uint256 _existingContribution = contributions[_beneficiary];\r\n        uint256 _newContribution = _existingContribution.add(_weiAmount);\r\n        require(\r\n            _newContribution >= investorMinCap &&\r\n                _newContribution <= investorHardCap\r\n        );\r\n        contributions[_beneficiary] = _newContribution;\r\n    }\r\n\r\n    // function finalization() internal {\r\n    //     if (goalReached()) {\r\n    //         MintableToken _mintableToken = MintableToken(token);\r\n    //         uint256 _alreadyMinted = _mintableToken.totalSupply();\r\n\r\n    //         uint256 _finalTotalSupply = _alreadyMinted\r\n    //             .div(tokenSalePercentage)\r\n    //             .mul(100);\r\n\r\n    //         foundersTimelock = new TokenTimelock(\r\n    //             token,\r\n    //             foundersFund,\r\n    //             releaseTime\r\n    //         );\r\n    //         foundationTimelock = new TokenTimelock(\r\n    //             token,\r\n    //             foundationFund,\r\n    //             releaseTime\r\n    //         );\r\n    //         partnersTimelock = new TokenTimelock(\r\n    //             token,\r\n    //             partnersFund,\r\n    //             releaseTime\r\n    //         );\r\n\r\n    //         _mintableToken.mint(\r\n    //             address(foundersTimelock),\r\n    //             _finalTotalSupply.mul(foundersPercentage).div(100)\r\n    //         );\r\n    //         _mintableToken.mint(\r\n    //             address(foundationTimelock),\r\n    //             _finalTotalSupply.mul(foundationPercentage).div(100)\r\n    //         );\r\n    //         _mintableToken.mint(\r\n    //             address(partnersTimelock),\r\n    //             _finalTotalSupply.mul(partnersPercentage).div(100)\r\n    //         );\r\n\r\n    //         _mintableToken.finishMinting();\r\n    //         // Unpause the token\r\n    //         PausableToken _pausableToken = PausableToken(token);\r\n    //         _pausableToken.unpause();\r\n    //         _pausableToken.transferOwnership(wallet);\r\n    //     }\r\n\r\n    //     super.finalization();\r\n    // }\r\n}\r\n",
  "sourcePath": "D:\\ERC20-ICO\\ico_irl\\contracts\\DappTokenCrowdsale.sol",
  "compiler": {
    "name": "solc",
    "version": "0.4.24+commit.e67f0147.Emscripten.clang"
  },
  "schemaVersion": "3.4.4",
  "updatedAt": "2022-07-15T03:14:12.666Z",
  "devdoc": {
    "methods": {
      "addAddressToWhitelist(address)": {
        "details": "add an address to the whitelist",
        "params": {
          "_operator": "address"
        },
        "return": "true if the address was added to the whitelist, false if the address was already in the whitelist"
      },
      "addAddressesToWhitelist(address[])": {
        "details": "add addresses to the whitelist",
        "params": {
          "_operators": "addresses"
        },
        "return": "true if at least one address was added to the whitelist, false if all addresses were already in the whitelist"
      },
      "buyTokens(address)": {
        "details": "low level token purchase ***DO NOT OVERRIDE***",
        "params": {
          "_beneficiary": "Address performing the token purchase"
        }
      },
      "capReached()": {
        "details": "Checks whether the cap has been reached.",
        "return": "Whether the cap was reached"
      },
      "checkRole(address,string)": {
        "details": "reverts if addr does not have role",
        "params": {
          "_operator": "address",
          "_role": "the name of the role // reverts"
        }
      },
      "getUserContribution(address)": {
        "details": "Returns the amount contributed so far by a sepecific user.\r",
        "params": {
          "_beneficiary": "Address of contributor\r"
        },
        "return": "User contribution so far\r"
      },
      "hasClosed()": {
        "details": "Checks whether the period in which the crowdsale is open has already elapsed.",
        "return": "Whether crowdsale period has elapsed"
      },
      "hasRole(address,string)": {
        "details": "determine if addr has role",
        "params": {
          "_operator": "address",
          "_role": "the name of the role"
        },
        "return": "bool"
      },
      "removeAddressFromWhitelist(address)": {
        "details": "remove an address from the whitelist",
        "params": {
          "_operator": "address"
        },
        "return": "true if the address was removed from the whitelist, false if the address wasn't in the whitelist in the first place"
      },
      "removeAddressesFromWhitelist(address[])": {
        "details": "remove addresses from the whitelist",
        "params": {
          "_operators": "addresses"
        },
        "return": "true if at least one address was removed from the whitelist, false if all addresses weren't in the whitelist in the first place"
      },
      "renounceOwnership()": {
        "details": "Allows the current owner to relinquish control of the contract."
      },
      "setCrowdsaleStage(uint256)": {
        "details": "Allows admin to update the crowdsale stage\r",
        "params": {
          "_stage": "Crowdsale stage\r"
        }
      },
      "transferOwnership(address)": {
        "details": "Allows the current owner to transfer control of the contract to a newOwner.",
        "params": {
          "_newOwner": "The address to transfer ownership to."
        }
      },
      "whitelist(address)": {
        "details": "getter to determine if address is in whitelist"
      }
    }
  },
  "userdoc": {
    "methods": {
      "renounceOwnership()": {
        "notice": "Renouncing to ownership will leave the contract without an owner. It will not be possible to call the functions with the `onlyOwner` modifier anymore."
      }
    }
  }
}